:100000000C9461000C947E000C947E000C947E0095
:100010000C947E000C947E000C947E000C947E0068
:100020000C947E000C947E000C947E000C947E0058
:100030000C947E000C947E000C947E000C947E0048
:100040000C94D5010C947E000C947E000C947E00E0
:100050000C947E000C947E000C947E000C947E0028
:100060000C947E000C947E00000000002400270009
:100070002A0000000000250028002B0000000000DE
:1000800023002600290004040404040404040202DA
:100090000202020203030303030301020408102007
:1000A0004080010204081020010204081020000012
:1000B0000008000201000003040700000000000027
:1000C000000011241FBECFEFD8E0DEBFCDBF11E08E
:1000D000A0E0B1E0E2E5F5E002C005900D92A832A3
:1000E000B107D9F721E0A8E2B1E001C01D92A43325
:1000F000B207E1F70E941F020C94A7020C940000C3
:10010000833081F028F4813099F08230A1F0089595
:100110008730A9F08830B9F08430D1F48091800024
:100120008F7D03C0809180008F7780938000089539
:1001300084B58F7702C084B58F7D84BD089580918A
:10014000B0008F7703C08091B0008F7D8093B000A6
:100150000895CF93DF93282F30E0F901E255FF4F48
:100160008491F901E656FF4FD491F901EA57FF4F08
:10017000C491CC2391F081110E948000EC2FF0E01B
:10018000EE0FFF1FE458FF4FA591B491EC91ED23C2
:1001900081E090E021F480E002C080E090E0DF9117
:1001A000CF9108951F93CF93DF93282F30E0F9016B
:1001B000E255FF4F8491F901E656FF4FD491F901C2
:1001C000EA57FF4FC491CC23C9F0162F81110E942A
:1001D0008000EC2FF0E0EE0FFF1FEE58FF4FA591CF
:1001E000B4918FB7F894111105C09C91ED2FE09553
:1001F000E92302C0EC91ED2BEC938FBFDF91CF91FF
:100200001F910895CF93DF9390E0FC01E656FF4FD6
:100210002491FC01EA57FF4F8491882361F190E01B
:10022000880F991FFC01E859FF4FC591D491FC013B
:10023000EE58FF4FA591B491611109C09FB7F89492
:100240008881209582238883EC912E230BC0623015
:1002500061F49FB7F8943881822F80958323888337
:10026000EC912E2B2C939FBF06C08FB7F894E8819A
:100270002E2B28838FBFDF91CF9108953FB7F8943D
:1002800080912D0190912E01A0912F01B09130010C
:1002900026B5A89B05C02F3F19F00196A11DB11DE1
:1002A0003FBFBA2FA92F982F8827820F911DA11D1C
:1002B000B11DBC01CD0143E0660F771F881F991F58
:1002C0004A95D1F708958F929F92AF92BF92CF92A5
:1002D000DF92EF92FF926B017C010E943E014B0185
:1002E0005C01C114D104E104F104F1F00E943E016B
:1002F000DC01CB0188199909AA09BB09883E934002
:10030000A105B10570F321E0C21AD108E108F10896
:1003100088EE880E83E0981EA11CB11CC114D10484
:10032000E104F10419F7DDCFFF90EF90DF90CF905B
:10033000BF90AF909F908F900895EF92FF920F9390
:100340001F93CF93DF931F92CDB7DEB7182F60E0D6
:1003500084E099830E94D200E12E9981F92E8701D1
:100360000C5E1F4F83E00E94A900892BD9F7F7018B
:10037000819191917F0161E0019709F060E084E053
:100380000E94D20083E00E94A900892BD9F3E016D5
:10039000F10641F761E084E00F90DF91CF911F916A
:1003A0000F91FF90EF900C94D2001F920F920FB616
:1003B0000F9211242F933F938F939F93AF93BF93EB
:1003C0008091290190912A01A0912B01B0912C01DB
:1003D0003091280126E0230F2D3720F40296A11D2D
:1003E000B11D05C029E8230F0396A11DB11D20935F
:1003F00028018093290190932A01A0932B01B093A7
:100400002C0180912D0190912E01A0912F01B0918E
:1004100030010196A11DB11D80932D0190932E01F5
:10042000A0932F01B0933001BF91AF919F918F9115
:100430003F912F910F900FBE0F901F9018957894B9
:1004400084B5826084BD84B5816084BD85B58260D9
:1004500085BD85B5816085BD80916E00816080938A
:100460006E001092810080918100826080938100F3
:100470008091810081608093810080918000816003
:10048000809380008091B10084608093B10080915E
:10049000B00081608093B00080917A008460809386
:1004A0007A0080917A00826080937A0080917A004D
:1004B0008E7F80937A0080917A00806880937A00A2
:1004C0001092C10060E083E00E94020161E084E0DC
:1004D0000E94020160E082E00E94020161E084E08B
:1004E0000E94D20060ED77E080E090E00E9463011E
:1004F00080E091E00E949D01C0E0D0E011E082E048
:100500000E94A900892BB1F08091320190913301B2
:100510000196909333018093320120913101211192
:100520000BC045974CF01093310184E191E00E949B
:100530009D0102C01092310162E370E080E090E022
:100540000E9463012097D9F20E940000D8CFF8944E
:02055000FFCFDB
:100552000000000001000000000000000000010097
:100562000000000000000000000000000000000089
:08057200000001000000000080
:00000001FF
